:020000040800F2
:10000000C00500200101000867150008A3130008BF
:10001000651500086D010008931800080000000035
:100020000000000000000000000000006B15000848
:100030006F01000800000000691500086D15000838
:100040001B0100081B0100081B0100081B01000820
:100050001B0100081B0100081B0100081B01000810
:100060001B0100081B0100081B0100081B01000800
:100070001B0100081B0100081B0100081B010008F0
:100080001B0100081B0100081B0100081B010008E0
:100090001B0100081B0100081B0100081B010008D0
:1000A0001B0100081B0100081B0100081B010008C0
:1000B0001B010008C11500081B0100081B010008F6
:1000C0001B0100081B0100081B0100081B010008A0
:1000D0001B0100081B0100081B0100081B01000890
:1000E0001B0100081B0100081B010008DFF80CD0F1
:1000F00000F02AF80048004705190008C005002054
:100100000648804706480047FEE7FEE7FEE7FEE7B1
:10011000FEE7FEE7FEE7FEE7FEE7FEE7BF150008A5
:10012000ED000008D2B201E000F8012B491EFBD21D
:1001300070470022F6E710B513460A4604461946F2
:10014000FFF7F0FF204610BD064C074D06E0E068C3
:1001500040F0010394E8070098471034AC42F6D30E
:10016000FFF7C8FF0C1A00082C1A0008FEE77047BA
:100170007047000070B5044600F00CF90546601C9D
:1001800002D004480078044400F004F9401BA04267
:10019000FAD370BD240000202DE9F84FDFF8B891A4
:1001A000002409F1040A0AF1040B23460F270BF17E
:1001B000040EC9E00125A5402A40AA427DD1674E20
:1001C000D1F804C0ACEB0608B44532D014DCBCF165
:1001D000030F3AD009DCBCF1000F2AD0BCF1010FAB
:1001E0001CD0BCF1020F31D11DE0BCF1110F17D0B2
:1001F000BCF1120F2AD119E0B8F5881F19D006DC1E
:10020000B8F5803F15D0B8F5801F1FD111E0B8F5C3
:10021000001F0ED0B8F5041F18D10AE0CB6815E016
:10022000CB681B1D12E0CB6808330FE0CB680C33A2
:100230000CE08B682BB1012B4FF0080303D0456114
:1002400004E0042302E0056100E00023FF2A01D856
:10025000064601E000F104064FEA840501D9A5F144
:100260002005D6F8008007FA05FC28EA0C0803FAF6
:1002700005F548EA0508C6F800804D68ED0062D52E
:10028000374DAE6946F00106AE61AD6924F0030654
:1002900005F001050095334D06EB050CDCF8085020
:1002A000A607360F07FA06F825EA0805DFF8B88032
:1002B000404503D14FF0000817E044E0DFF8AC8080
:1002C000404502D14FF001080FE0DFF8A48040451F
:1002D00002D14FF0020808E0DFF89880404502D1D3
:1002E0004FF0030801E04FF0040808FA06F848EA66
:1002F0000508CCF808804D68D9F80060ED034D463C
:1003000001D5164300E096432E604D68DAF8006090
:10031000AD03554601D5164300E096432E604D6867
:10032000DBF80060ED025D4601D5164300E0964320
:100330002E604D68DEF80060AD02754601D51643AB
:1003400000E096432E60641C0D682A46E5407FF469
:1003500031AFBDE8F88F000000040140000011102B
:10036000001002400000014000080140000C014064
:100370000010014000140140C26821EA02030A4053
:1003800043EA0241016170470AB101617047090403
:10039000FBE700000148806870470000240000204F
:1003A000024881680278114481607047240000206F
:1003B000074810B5016841F010010160032000F00A
:1003C00075F8002000F006F800F024F8002010BDB9
:1003D0000020024070B50D4D04464FF47A71287824
:1003E000B1FBF0F00A490968B1FBF0F000F0CCFA7B
:1003F00048B9102C07D200222146501E00F036F8D2
:1004000000206C6070BD012070BD00002400002041
:10041000300000200C4808B5816941F0010181617C
:10042000816901F001010091C16941F08051C16110
:10043000C06900F0805000900448416821F0E061FC
:1004400041F00071416008BD001002400000014011
:10045000002809DB00F01F020121914040098000C3
:1004600000F1E020C0F8001170470000F0B40E4B1E
:100470001B680C46C3F30223C3F10705042D00D902
:100480000425191D072901D2002300E0DB1E0126E7
:1004900006FA05F1491E214099409E40761E1640FD
:1004A0003143F0BC01F0F6B90CED00E0064900F074
:1004B000070208684FF6FF03184040EA0220034A8B
:1004C00010430860704700000CED00E00000FA05E2
:1004D0002DE9F0470F46050061D0434E306800F02B
:1004E0000700B84209D2306820F007003843306076
:1004F000306800F00700B84251D128683B4C8107B2
:1005000012D5400703D5606840F4E0606060287849
:10051000000703D5606840F4605060606068A968B7
:1005200020F0F000084360602878C00728D0686891
:10053000012810D02168022810D0890700292EDA5E
:10054000616821F0030101436160FFF723FF8046EA
:1005500041F288390DE021688903EFE78901EDE771
:10056000FFF718FFA0EB0801494502D90320BDE8B9
:10057000F0876068696800F00C00B0EB810FEFD184
:10058000306800F00700B8420BD9306820F007004F
:1005900038433060306800F00700B84201D00120D5
:1005A000E5E72878400705D56068E96820F4E06051
:1005B000084360602878000706D56068296920F440
:1005C000605040EAC100606000F018F86168084AB5
:1005D000C1F30311515CC840064908600648006831
:1005E000FFF7F8FE0020C2E70020024000100240A2
:1005F000FC190008300000202800002012A185B05E
:100600000FC98DE80F0014A0144A006804905168C7
:10061000134801F00C03042B10D0082B0ED1C1F3AA
:100620008343C9031DF803000AD5516804AAC1F326
:100630004041515C0A4A5043B0FBF1F005B07047AD
:1006400008494843FAE700000203040506070809C1
:100650000A0B0C0D0E0F10100102000000100240DA
:1006600000127A0000093D002DE9F84F040070D017
:100670002078C04DC00749D06868C0F381000128C8
:1006800007D06868C0F38100022809D16868C003F8
:1006900006D52868800339D560680028E7D035E0A2
:1006A0006068B0F5803F0BD010B1B0F5A02F11D02D
:1006B000286820F480302860286820F4802002E038
:1006C000286840F480302860606890B1FFF762FECF
:1006D00006460AE0286840F480202860F0E700BF62
:1006E000FFF758FE801B642873D828688003F7D56D
:1006F0000CE0FFF74FFE064605E000BFFFF74AFE9D
:10070000801B6428F0D828688003F7D420789A4E9C
:1007100080074FF001094FF0000839D5686810F0E4
:100720000C0F07D06868C0F38100022809D16868FF
:10073000C00306D42868800714D52069012808D191
:1007400010E02069B0B1C6F80090FFF723FE07461D
:1007500005E00AE1FFF71EFEC01B0228C4D8286886
:100760008007F7D52868616920F0F80040EAC100E9
:1007700028600DE0C6F80080FFF70CFE074604E095
:10078000FFF708FEC01B022823D828688007F7D48B
:10079000207800072CD57948A169D9B1C0F800901C
:1007A000FFF7F8FD074604E0FFF7F4FDC01B022841
:1007B0000FD8686A8007F7D571484FF4FA5100687E
:1007C000B0FBF1F0009000BF0098411E0091FAD2FA
:1007D0000EE080E0C0F80080FFF7DCFD074604E093
:1007E000FFF7D8FDC01B022875D8686A8007F7D4C8
:1007F0002078400760D5E8690027C00008D4E86980
:1008000040F08050E861E869012700F080500090D6
:100810005C480168C90513D40168834641F48071BE
:100820000160FFF7B7FD824606E000BFFFF7B2FDAB
:10083000A0EB0A0064284ED8DBF80000C005F5D50F
:10084000E06801280AD008B1052813D0286A20F0F2
:1008500001002862286A20F0040002E0286A40F0C3
:1008600001002862E06841F2883B98B1FFF792FDF1
:1008700082460BE0286A40F004002862EEE700BFE1
:10088000FFF788FDA0EB0A0159455AD8286A80076E
:10089000F6D50CE0FFF77EFD824605E0FFF77AFD16
:1008A000A0EB0A0159454CD8286A8007F6D41FB13D
:1008B000E86920F08050E861E06988B36968C1F3B5
:1008C0008101022944D00228C6F8608004D0FFF7D5
:1008D00061FD044638E034E0FFF75CFD074604E0C4
:1008E000FFF758FDC01B02282BD828688001F7D4D9
:1008F000206AB0F5803F05D16868A16820F4003017
:1009000008436860D4E908010843696821F4741158
:1009100008436860C6F86090FFF73CFD044606E0B7
:1009200025E000BFFFF736FD001B022809D8286824
:100930008001F7D51BE000BFFFF72CFD001B02284C
:1009400002D90320BDE8F88F28688001F4D40EE0B6
:100950000128F7D06868226A00F48031914204D1FE
:10096000616A00F47010884201D00120EAE700209B
:10097000E8E70000001002400000424280044242CA
:10098000300000200070004010B5401EB0F1807FA4
:1009900001D3012010BD4FF0E02460610F216017EA
:1009A00000F078FF0020A06107202061002010BD2A
:1009B0007047704770B590F83C20012A26D001247A
:1009C00080F83C40022280F83D2003685A689D6808
:1009D00022F070060A6832435A600D4B02689A4250
:1009E00008D0B2F1804F05D00A4B9A4202D00A4B90
:1009F0009A4204D1496825F080031943916080F838
:100A00003D40002180F83C10084670BD022070BDBA
:100A1000002C0140000400400008004010B5040014
:100A200003D094F83D0010B107E0012010BD002074
:100A300084F83C00204600F01FF8022084F83D00B6
:100A4000211D206800F0C2FD012084F8460084F8D2
:100A50003E0084F83F0084F8400084F8410084F8A8
:100A6000420084F8430084F8440084F8450084F888
:100A70003D00002010BD000008B50068064988420E
:100A800008D10648816941F400618161806900F400
:100A90000060009008BD0000002C014000100240E2
:100AA00090F83D10012901D001207047022180F803
:100AB0003D1000680B49884208D0B0F1804F05D046
:100AC0000949884202D00949884204D1816801F06D
:100AD0000701062903D0016841F0010101600020EF
:100AE00070470000002C0140000400400008004056
:100AF00001680A6A41F211131A4207D10A6A9B106F
:100B00001A4203D10A6822F001020A60012180F82A
:100B10003D100020704770B5044690F83C00012855
:100B200017D0012584F83C50022084F83D0020684D
:100B3000826822F0770222F47F428260086850289F
:100B400030D00DDC20284DD005DC98B310283BD1E7
:100B500048E0022070BD302844D0402834D139E02C
:100B6000602828D0702806D0B0F5805F2CD0B0F572
:100B7000005F29D10AE0CB68D1E90121206800F0AB
:100B800068FD2068816841F0770109E0CB68D1E910
:100B90000121206800F05DFD2068816841F48041FA
:100BA000816011E0CA684968206800F007FE5021A2
:100BB000206807E016E0CA684968206800F03CFE3B
:100BC0006021206800F04FFD84F83D50002084F83B
:100BD0003C0070BDCA684968206800F0EFFD402104
:100BE0002068EFE7226801461046EBE72DE9F04167
:100BF000304C314F0025E068012610B1012815D096
:100C000026E000212C4800F0B6FB401CE06138686B
:100C100045623868016A21F00A0101623868016A98
:100C200041F002010162E660A56111E00021224865
:100C300000F0A1FB401C2062386845623868016AF8
:100C400021F00A0101623868016A0162A661E5606B
:100C5000206A002241F28831884203D32561656110
:100C6000BDE8F081A0F6AC5140F2DC53994202D2CB
:100C7000C4E9045608E0A0F57A71B1F57A7F00D294
:100C8000012261690129EBD1A1690129E8D1A1689B
:100C90000A4B02EB4101A16021695A5403F124027D
:100CA00042F82100491C21612029D9DB6670656169
:100CB0002561D5E7000000207401002034000020E9
:100CC0002DE9F041054690F83C000C46012836D04D
:100CD000012085F83C008AB3042A42D02868082AFB
:100CE00051D0D4E90023E168066A26F480560662F2
:100CF000C669076A26F4407646EA03234FF6FF7674
:100D000006EA013123F4704319434FF4005627F4E7
:100D1000005306EA02321A43C16102622868C169BF
:100D200021F44061C1612868C169A26841EA0221D9
:100D3000C161002085F83C00BDE8F08101E002209F
:100D4000FAE7D4E90012E368286800F049FD286852
:100D5000816921F00C01816128688169A2681143D1
:100D60000FE0D4E90012E368286800F077FD2868F6
:100D7000816921F44061816128688169A26841EA42
:100D800002218161D5E7D4E90027267B016A21F49D
:100D900080710162C169036A21F00301394321F0C6
:100DA000F00731074FF4007647EA116123F400732E
:100DB00006EA02221A43C16102622868C16921F071
:100DC0000C01C1612868C169A2681143B0E710B580
:100DD000040003D094F83D0010B107E0012010BDDD
:100DE000002084F83C00204600F01EF8022084F821
:100DF0003D00211D206800F0E9FB012084F8460039
:100E000084F83E0084F83F0084F8400084F84100F4
:100E100084F8420084F8430084F8440084F84500D4
:100E200084F83D00002010BD00B585B00021009180
:100E30000191029103910068114988421ED1114825
:100E4000C16941F00201C161C16901F0020104916F
:100E5000816941F0040181618069694600F0040004
:100E60000490402000900848FFF796F900221146B0
:100E70001D20FFF7FBFA1D20FFF7EAFA05B000BDC1
:100E800000040040001002400008014010B5044674
:100E900051B104290DD0082910D094F8410094F8DC
:100EA0004520012811D10EE094F83E0094F842202C
:100EB000F7E794F83F0094F84320F2E794F84000F5
:100EC00094F84420EDE7012A01D0012010BD022052
:100ED00051B1042911D0082918D084F8410084F8B0
:100EE00045000C291BD136E084F83E0084F842000E
:100EF0002068C26842F0020210E084F83F0084F8E3
:100F000043002068C26842F0040207E084F8400011
:100F100084F844002068C26842F00802C2600122DE
:100F2000206800F089FB0E492068884208D0B0F1A3
:100F3000804F05D00B49884202D00B49884204D12A
:100F4000816801F00701062903D0016841F0010121
:100F50000160002010BD2068C26842F01002DDE789
:100F6000002C0140000400400008004070B5044619
:100F7000006801694FF00005C943890715D4C168AD
:100F8000C943890711D4E91E016101202077206837
:100F900080698007204602D0FFF728FE04E000F0B9
:100FA000BDF8204600F05EF9257720680169C94345
:100FB000490717D4C168C943490713D46FF0040126
:100FC0000161022020772068806910F4407F20466C
:100FD00002D0FFF70BFE04E000F0A0F8204600F07E
:100FE00041F9257720680169C943090716D4C1680A
:100FF000C943090712D46FF008010161042020776A
:101000002068C0698007204602D0FFF7EFFD04E0AA
:1010100000F084F8204600F025F925772068016962
:10102000C943C90617D4C168C943C90613D46FF0B0
:1010300010010161082020772068C06910F4407F0A
:10104000204602D0FFF7D2FD04E000F067F820460A
:1010500000F008F9257720680169C943C90708D15C
:10106000C168C943C90704D1891E0161204600F047
:1010700081F920680169C943090609D4C168C943D7
:10108000090605D46FF0800101612046FFF790FC4E
:1010900020680169C943490609D4C168C9434906A2
:1010A00005D46FF040010161204600F079F9206815
:1010B0000169C94389060BD4C168C943890607D4AD
:1010C0006FF0200101612046BDE87040FFF771BC60
:1010D00070BD000000B585B0002100910191029122
:1010E00003910068B0F1804F11D10A48816941F045
:1010F000040181618069694600F0040004900320C6
:1011000000900220019003900348FFF745F805B0D6
:1011100000BD00000010024000080140704770B59B
:10112000044690F83C000D4601280AD0012084F8BE
:101130003C0042B1042A18D0082A2AD00C2A4DD1EA
:1011400039E0022070BD206800F096FA20688169BD
:1011500041F0080181612068816921F00401816109
:10116000206881692A69114311E0206800F0ACFA17
:101170002068816941F4006181612068816921F4FE
:1011800080618161206881692A6941EA0221816167
:1011900024E0206800F0C4FA2068C16941F0080129
:1011A000C1612068C16921F00401C1612068C16981
:1011B0002A69114311E0206800F0DEFA2068C16955
:1011C00041F40061C1612068C16921F48061C1619D
:1011D0002068C1692A6941EA0221C161002084F8BE
:1011E0003C0070BD10B5040003D094F83D0010B170
:1011F00007E0012010BD002084F83C00204600F0EC
:101200001FF8022084F83D00211D206800F0DEF95F
:10121000012084F8460084F83E0084F83F0084F8FA
:10122000400084F8410084F8420084F8430084F8C8
:10123000440084F8450084F83D00002010BD000003
:1012400008B50068B0F1804F08D10548C16941F088
:101250000101C161C06900F00100009008BD0000FB
:10126000001002407047000010B50446022249B148
:1012700004290ED0082913D094F84100012816D073
:10128000012010BD94F83E000128F9D184F83E20D9
:101290000FE094F83F000128F2D184F83F2008E0E5
:1012A00094F840000128EBD184F8402001E084F854
:1012B00041200122206800F0BFF90F4920688842D0
:1012C00003D1426C42F4004242642068884208D054
:1012D000B0F1804F05D00949884202D008498842C0
:1012E00004D1816801F00701062903D0016841F0AB
:1012F00001010160002010BD002C014000040040ED
:101300000008004030B504460D460068002200F099
:1013100093F9174B41F2111120688A10984209D1B4
:10132000036A0B4206D1036A134203D1436C23F4D0
:10133000004343642068036A0B4206D1016A1142EC
:1013400003D1016821F00101016001203DB1042DAC
:1013500008D0082D09D084F84100002030BD84F861
:101360003E00FAE784F83F00F7E784F84000F4E72E
:10137000002C014070470246002041B1042909D0E9
:1013800008290AD00C2901D11068006C7047106838
:10139000406B70471068806B70471068C06B704777
:1013A0007047FEE770B586B0002418480094019499
:1013B00002940394816941F010018161816901F017
:1013C00010010491816941F020018161816901F07E
:1013D00020010491816941F00401816180690C4E12
:1013E00000F004004FF400550490002229463046D6
:1013F000FEF7CAFF01200095CDE901040220039009
:1014000069463046FEF7C8FE06B070BD00100240C7
:101410000010014010B586B00024174800940194D4
:101420000294039404941349059401604721C0E990
:1014300001144FF6FF71C0E9031444618461FFF7A2
:10144000EDFA08B1FEF794FE4FF480500090694623
:101450000948FFF760FB08B1FEF78AFE049404A96F
:1014600005480594FFF7A6FA002801D0FEF780FE94
:1014700006B010BD002C0140E400002010B58AB079
:10148000002407941C2168460894FEF752FE194870
:101490004FF08041C0E9001440F26671C0E902419A
:1014A00004618461FFF79EFE08B1FEF761FE0794B8
:1014B00007A910480894FFF77DFA08B1FEF758FE17
:1014C0006020CDE900040294002269460948049492
:1014D000FFF725FE08B1FEF74BFE042269460548DA
:1014E000FFF71DFE08B1FEF743FE0248FFF7F2FDCD
:1014F0000AB010BD2C01002010B586B00024184899
:101500000594049400940194029414490394016096
:101510004721C0E901144FF6FF71C0E9031484614B
:10152000FFF755FC08B1FEF723FE049404A90C480C
:101530000594FFF73FFA08B1FEF71AFE0120CDE946
:10154000004002940022694605480394FFF7B8FB67
:10155000002801D0FEF70CFE06B010BD00040040CC
:1015600074010020FEE7704770477047FEF718BF10
:1015700030B58FB028216846FEF7DBFD14210AA89C
:10158000FEF7D7FD01210804CDE9001000240294E4
:1015900002250491CDE907504FF4E0100990684608
:1015A000FFF762F80F20CDE90A056802CDE90C408B
:1015B00002210AA80E94FEF78BFF0FB030BD7047D2
:1015C0000148FFF7D3BC000074010020F0B50268A9
:1015D000164B174C174D4FF08047984205D0B84234
:1015E00003D0A04201D0A84203D122F070064A687D
:1015F0003243984205D0B84203D0A04201D0A8425D
:1016000003D122F44074CA6822434C6922F080025C
:10161000224302608A68C2620A688262984201D1EB
:101620000969016301214161F0BD0000002C014006
:10163000000400400008004010B501F01F03012124
:10164000046A99408C430462016A9A401143016222
:1016500010BD10B5846842EA032224F47F440A4393
:101660002243826010BD826822F070020A4342F079
:10167000070181607047000030B5026A22F0010264
:101680000262026A4368846924F073050C682C4383
:1016900022F002058A682A430A4DA8420BD122F0A3
:1016A0000805CA6823F440732A434D6922F00402F6
:1016B0001D438B692B434360846149684163026227
:1016C00030BD0000002C014030B5026A22F010024B
:1016D0000262026A436884690D6824F4E64444EABD
:1016E00005248D6822F0200242EA05120B4DA84223
:1016F0000ED1CD6822F0800242EA05124D6923F432
:10170000406343EA85038D6922F0400243EA850382
:101710004360846149688163026230BD002C0140EE
:1017200030B5026A22F480720262036A4268C469B8
:1017300023F4007324F073050C682C438D6843EA8E
:1017400005230C4DA8420ED1CD6823F4006343EA73
:1017500005234D6922F4405242EA05128D6923F4B3
:10176000806342EA05124260C4614968C163036252
:1017700030BD0000002C014030B5026A22F48052D6
:101780000262046A4268C3690D6823F4E64343EACF
:1017900005238D6824F4005444EA0534064DA8421C
:1017A00004D14D6922F4804242EA85124260C3614D
:1017B00049680164046230BD002C014010B5036A21
:1017C000046A24F001040462846924F0F00444EA09
:1017D000021423F00A020A438461026210BD000071
:1017E00070B5046A24F0010404628469056A0F4E2E
:1017F000B04208D0B0F1804F05D00D4EB04202D0BB
:101800000C4EB04203D124F00304144301E044F031
:1018100001041A0724F0F00444EA126225F00A03D6
:1018200001F00A0119438261016270BD002C014080
:10183000000400400008004010B5036A23F01003C4
:1018400003628369046A23F4704343EA023224F09A
:10185000A00343EA01118261016210BD30B5046A40
:1018600024F0100404628469056A24F4407444EA94
:10187000022222F470444FF6FF7202EA033222433E
:10188000A02425F0A00304EA01111943826101623A
:1018900030BDFEE70907090E002804DB00F1E02057
:1018A00080F80014704700F00F0000F1E02080F88D
:1018B000141D704702E008C8121F08C1002AFAD19F
:1018C00070477047002001E001C1121F002AFBD1C0
:1018D0007047000070B54FF6FA75094E281A84B2A9
:1018E000306844623046FFF7DBF8306801E0416A57
:1018F0008CB2AC42FBD3BDE870400148FFF7F8B8AA
:10190000E4000020FEF754FDFFF732FEFFF74AFD2A
:10191000FFF780FDFFF7B2FDFFF7EEFD0021334832
:10192000FFF7B4FA31480068016A41F00201016230
:1019300040F265718807C162C16A49084163C16AA2
:10194000490881632A4D4FF40C762878012842D14A
:101950000020287004212748FFF786FC42F2283037
:10196000FFF7B8FF04212348FFF7CCFC41F29410A5
:10197000FFF7B0FFAA7840F29A67D043C1B2E87887
:101980001206C34342EA0141DBB241EA0020184398
:101990001F24686004211748FFF766FC3046FFF7F4
:1019A00099FF04211348FFF7ADFC6868E040C007C9
:1019B00001D0384600E03046FFF78CFF641EE9D5C1
:1019C00004210C48FFF750FC3046FFF783FF042149
:1019D0000848FFF797FC4FF400510748FEF7CCFC8E
:1019E0004FF4FA70FEF7C6FBAFE700007401002069
:1019F000000000202C010020001001400000000029
:101A00000000000001020304060708092C1A000860
:101A10000000002034000000B4180008601A00081C
:101A2000340000208C050000C4180008000000A24B
:101A300000000000000000000000000000000000A6
:101A40000000000000000000000000000000000096
:101A50000100000010000000000000000024F4005D
:04000005080000ED02
:00000001FF
